:100000000C9461010C94D0080C9401090C943209F1
:100010000C9463090C9494090C94C5090C94F6098A
:100020000C94270A0C9492010C9492010C94920166
:100030000C9492010C94F6070C9492010C9492018A
:100040000C9492010C9492010C9492010C949201E4
:100050000C9492010C9492010C9492010C94580A05
:100060000C9492010C9431020C9481030C94920133
:100070000C9492010C9492010C9492010C949201B4
:100080000C9492010C9492010C9492010C949201A4
:100090000C9470020C94C0030C9492010C94920185
:1000A0000C9492010C9492010C9492010C94920184
:1000B0000C9492010C9492010C9492010C94920174
:1000C0000C9492010C9492010C9492010C94AF0246
:1000D0000C94FF030C9492010C94EE020C943E04D9
:1000E0000C949201B608AE08A20894088308C208CE
:1000F0006E08140B180B1C0B220B130B280B2E0B6A
:10010000340B3A0B400B460B4C0B520B130B580B9A
:100110005E0B0E0B0C9483080C94280B0C94A20815
:100120000C94460B0C942E0B0C94FE040C9491062C
:100130000C9434060C94220B0C94DD010C94A40155
:100140000C94AE080C94520B0C941C0B0C94400BAA
:100150000C942C030C94580B0C946E080C9494087B
:100160000C9494010C940E0B0C94C2080C943A0B52
:100170000C944C0B0C94140B0C940B0C0C94B608B4
:100180000C94BD010C94180B0C945E0B0C94340B66
:100190000C946E060C94EA010C94130B02000009F7
:1001A0000A02080B0C0D0706030401000000000002
:1001B000000000000000000000000000000000003F
:1001C00000000000000000000011100F00000000FF
:1001D000000000000000000000000000000000001F
:1001E00000000001021020200808102040102040CC
:1001F00080020102010804020101020408102040EB
:100200008080402010080402018004020180402008
:100210001008040201080402010102040810204031
:100220008001020408102040800505050507050827
:10023000080808020202020A0A0808040404040169
:10024000010101010101010303030303030303048B
:100250000707070C0C0C0C0C0C0C0C02020202061B
:10026000060606060606060B0B0B0B0B0B0B0B000C
:100270000020002300260029002C002F003200005F
:1002800001000003010601090100002200250028E9
:10029000002B002E0031003400020100000501088F
:1002A000010B0100002100240027002A002D00304E
:1002B00000330001010000040107010A0100FE04EF
:1002C0006E0611241FBECFEFD1E2DEBFCDBF00E02E
:1002D0000CBF12E0A0E0B2E0EEEDF8E100E00BBFF1
:1002E00002C007900D92A232B107D9F724E0A2E232
:1002F000B2E001C01D92A03FB207E1F712E0C2ECEC
:10030000D2E000E006C022970109FE010BBF0E9467
:10031000690CCE3BD10780E00807A9F70E947D0653
:100320000C946D0C0C940000FC0124853585F901BA
:10033000E05CFF4F80819181329620813181821B68
:10034000930B8F7399270895FC0184859585FC0193
:10035000E05CFF4F4081518132962081318142170C
:10036000530741F00190F081E02DE80FF91F8081E3
:1003700090E008958FEF9FEF0895FC0184859585A7
:10038000FC01E05CFF4F4081518132962081318138
:100390004217530779F0A081B181A80FB91F8C9142
:1003A000208131812F5F3F4F2F733327318320838B
:1003B00090E008958FEF9FEF0895FC0181A18111D6
:1003C00002C011A20895A489B5898C9186FFFDCF42
:1003D00011A20895CF93DF93DC011E968D919C911D
:1003E0001F97EC01C05CDF4F488159814F5F5F4F21
:1003F0004F735527FC01EE5BFF4F2081318124179D
:100400003507D9F3E881F981E80FF91F60831E965B
:10041000ED91FC911F97E05CFF4F5183408356960E
:10042000ED91FC915797208181E090E05F960C90D0
:100430005F9702C0880F991F0A94E2F7282B208348
:1004400081E091968C9391975496ED91FC915597FC
:1004500080818064808381E090E0DF91CF91089576
:1004600008951F920F920FB60F9211240BB60F92A0
:100470002F933F934F938F939F93EF93FF9380918D
:10048000C00082FD29C04091C6008091C6049091B1
:10049000C70401968F7399272091C8043091C9042D
:1004A0008217930759F0E091C604F091C704EA5708
:1004B000FB4F40839093C7048093C604FF91EF9154
:1004C0009F918F914F913F912F910F900BBE0F9065
:1004D0000FBE0F901F9018958091C600EFCF089522
:1004E0001F920F920FB60F9211240BB60F922F93FB
:1004F0003F934F938F939F93EF93FF938091C80007
:1005000082FD29C04091CE0080913E0490913F042D
:1005100001968F73992720914004309141048217EE
:10052000930759F0E0913E04F0913F04E250FC4FF4
:10053000408390933F0480933E04FF91EF919F91FD
:100540008F914F913F912F910F900BBE0F900FBE47
:100550000F901F9018958091CE00EFCF08951F92B5
:100560000F920FB60F9211240BB60F922F933F9359
:100570004F938F939F93EF93FF938091D00082FDD1
:1005800029C04091D6008091B6039091B70301969F
:100590008F7399272091B8033091B903821793077D
:1005A00059F0E091B603F091B703EA58FC4F40834D
:1005B0009093B7038093B603FF91EF919F918F9132
:1005C0004F913F912F910F900BBE0F900FBE0F9048
:1005D0001F9018958091D600EFCF08951F920F922B
:1005E0000FB60F9211240BB60F922F933F934F9398
:1005F0008F939F93EF93FF938091300182FD29C0E9
:100600004091360180912E0390912F0301968F73B4
:10061000992720913003309131038217930759F0C5
:10062000E0912E03F0912F03E251FD4F4083909310
:100630002F0380932E03FF91EF919F918F914F9104
:100640003F912F910F900BBE0F900FBE0F901F90F8
:10065000189580913601EFCF209194023091950248
:10066000F901E05CFF4F80819181329620813181D8
:10067000821B930B8F739927892B09F03FC0209120
:10068000720230917302F901E05CFF4F8081918129
:10069000329620813181821B930B8F739927892B8E
:1006A00051F52091500230915102F901E05CFF4F69
:1006B00080819181329620813181821B930B8F73CF
:1006C0009927892BA9F420912E0230912F02F9014C
:1006D000E05CFF4F80819181329620813181821BC5
:1006E000930B8F739927892B09F408950C94ED02CD
:1006F0000E94AE02E8CF0E946F02D3CF0E94300268
:10070000BECF1F920F920FB60F9211240BB60F920D
:100710002F933F938F939F93EF93FF9320918204A6
:1007200030918304809184049091850428173907BF
:1007300009F1E0918404F0918504EE5BFB4F208188
:10074000809184049091850401968F7399279093EA
:100750008504809384042093C600FF91EF919F91BC
:100760008F913F912F910F900BBE0F900FBE0F9066
:100770001F9018958091C1008F7D8093C100EDCFAF
:100780001F920F920FB60F9211240BB60F922F9358
:100790003F938F939F93EF93FF932091FA033091B0
:1007A000FB038091FC039091FD032817390709F1A1
:1007B000E091FC03F091FD03E654FC4F2081809111
:1007C000FC039091FD0301968F7399279093FD038D
:1007D0008093FC032093CE00FF91EF919F918F9126
:1007E0003F912F910F900BBE0F900FBE0F901F9057
:1007F00018958091C9008F7D8093C900EDCF1F921D
:100800000F920FB60F9211240BB60F922F933F93B6
:100810008F939F93EF93FF93209172033091730313
:1008200080917403909175032817390709F1E091BD
:100830007403F0917503EE5CFC4F2081809174038A
:100840009091750301968F73992790937503809308
:1008500074032093D600FF91EF919F918F913F9168
:100860002F910F900BBE0F900FBE0F901F901895F9
:100870008091D1008F7D8093D100EDCF1F920F9298
:100880000FB60F9211240BB60F922F933F938F93B5
:100890009F93EF93FF932091EA023091EB028091B6
:1008A000EC029091ED022817390709F1E091EC0272
:1008B000F091ED02E655FD4F20818091EC02909180
:1008C000ED0201968F7399279093ED028093EC02CD
:1008D00020933601FF91EF919F918F913F912F913E
:1008E0000F900BBE0F900FBE0F901F901895809128
:1008F00031018F7D80933101EDCFCF92DF92EF9266
:10090000FF92CF93DF93EC016A017B01411581EEE9
:10091000580761057105F9F0EC89FD8981E090E0E7
:1009200008A002C0880F991F0A94E2F7808360E054
:1009300079E08DE390E0A70196010E94410C2150DF
:100940003109410951095695479537952795211544
:1009500080E1380798F0EC89FD89108260E874E83E
:100960008EE190E0A70196010E94410C21503109CF
:10097000410951095695479537952795E889F98991
:100980003083EA89FB89208319A2EE89FF8940819F
:1009900081E090E09C010C8C02C0220F331F0A946E
:1009A000E2F7422B4083EE89FF8940819C010D8C48
:1009B00002C0220F331F0A94E2F7422B4083EE89D4
:1009C000FF8940819C010E8C02C0220F331F0A94C4
:1009D000E2F7422B4083EE89FF8920810F8C02C011
:1009E000880F991F0A94E2F7809582238083DF9114
:1009F000CF91FF90EF90DF90CF900895CF9310921A
:100A00008B0210928A0288EE93E0A0E0B0E080931F
:100A10008C0290938D02A0938E02B0938F022FE0F0
:100A200032E0309389022093880246E854E05093E4
:100A300095024093940242E454E05093970240930D
:100A4000960245EC50E0509399024093980244EC92
:100A500050E050939B0240939A0240EC50E0509338
:100A60009D0240939C0241EC50E050939F024093C2
:100A70009E0242EC50E05093A1024093A00246EC4B
:100A800050E05093A3024093A202C4E0C093A4029A
:100A9000F3E0F093A502E7E0E093A60275E070931F
:100AA000A70261E06093A8021092690210926802A6
:100AB00080936A0290936B02A0936C02B0936D02D4
:100AC00030936702209366024EEF53E05093730217
:100AD000409372024AEB53E05093750240937402C4
:100AE0004DEC50E050937702409376024CEC50E08E
:100AF000509379024093780248EC50E050937B0287
:100B000040937A0249EC50E050937D0240937C027E
:100B10004AEC50E050937F0240937E024EEC50E04E
:100B20005093810240938002C0938202F09383022B
:100B3000E0938402709385026093860210924702CC
:100B4000109246028093480290934902A0934A0271
:100B5000B0934B02309345022093440246E753E0A2
:100B6000509351024093500242E353E0509353029A
:100B70004093520245ED50E0509355024093540289
:100B800044ED50E0509357024093560240ED50E040
:100B9000509359024093580241ED50E050935B024C
:100BA00040935A0242ED50E050935D0240935C0244
:100BB00046ED50E050935F0240935E02C0936002A6
:100BC000F0936102E09362027093630260936402A7
:100BD00010922502109224028093260290932702FD
:100BE000A0932802B093290230932302209322027B
:100BF0008EEE92E090932F0280932E028AEA92E08A
:100C0000909331028093300285E391E09093330218
:100C10008093320284E391E0909335028093340212
:100C200080E391E0909337028093360281E391E074
:100C3000909339028093380282E391E090933B02D3
:100C400080933A0286E391E090933D0280933C02C8
:100C5000C0933E02F0933F02E09340027093410242
:100C600060934202CF910895AF92BF92CF92DF92EC
:100C7000EF92FF920F931F93CF93DF935C018B0151
:100C8000C0E0D0E0E12CF12CF501EC0FFD1F4AE0B3
:100C900050E06281C8010E94A3076C016EE2C801A6
:100CA0000E94BE068C0D9D1DE80EF91E2196C330D4
:100CB000D10551F74AE050E0F5016581C8010E9475
:100CC000A3078E0D9F1DDF91CF911F910F91FF9074
:100CD000EF90DF90CF90BF90AF9008958FE192E0BA
:100CE0009093CB048093CA041092CC041092CD044C
:100CF0001092CE041092CF0408950E94A20A0E947E
:100D0000290C0E94400C8CE293E0892B29F00E9470
:100D10002C030E94400CFBCF0E94400C0E94400C10
:100D2000FBCFCF92DF92EF92FF920F931F93CF935F
:100D3000DF936C0141155105F1F08B01EA01E12CC3
:100D4000F12CD8016D918D01D601ED91FC910190AE
:100D5000F081E02DC6011995E80EF91E2197209724
:100D600081F7C701DF91CF911F910F91FF90EF9015
:100D7000DF90CF900895E12CF12CF3CFDC01ED91C1
:100D8000FC910190F081E02D19948F929F92AF9287
:100D9000BF92CF92DF92EF92FF920F931F93CF9368
:100DA000DF93CDB7DEB7A1970FB6F894DEBF0FBEC5
:100DB000CDBF7C01D42EE52FCB01C22E19A221E09C
:100DC0002C1508F051C08C2C912CA12CB12C8E012B
:100DD0000F5D1F4F0BC0805DD8018C93211531052D
:100DE00041055105C9F0D22EE32FCA016D2D7E2F8A
:100DF000A50194010E94410C8D2DC29E80191124E1
:100E0000015011098A303CF3895CD8018C9321157B
:100E100031054105510539F70115110569F1F80151
:100E200001900020E9F7AF0141505109401B510BDF
:100E3000D701ED91FC910280F381E02DB801C7014B
:100E40001995A1960FB6F894DEBF0FBECDBFDF9106
:100E5000CF911F910F91FF90EF90DF90CF90BF90B7
:100E6000AF909F908F9008952AE0822E912CA12C14
:100E7000B12C3AE0C32EABCF80E090E0E2CFCF922E
:100E8000DF92EF92FF920F931F93CF93DF93EC01CA
:100E90006A017B0121153105A1F02A30310569F085
:100EA000B701A601CE01DF91CF911F910F91FF9065
:100EB000EF90DF90CF900C94C50677FD11C02AE02B
:100EC000EFCFE881F9810190F081E02D642FDF916F
:100ED000CF911F910F91FF90EF90DF90CF901994D9
:100EE000E881F9810190F081E02D6DE219958C0186
:100EF00044275527BA014C195D096E097F092AE07C
:100F0000CE010E94C506800F911FDF91CF911F91E6
:100F10000F91FF90EF90DF90CF9008959A01AB0171
:100F2000662757FD6095762F0C943F0721153105F4
:100F300011F00C94C506DC01ED91FC910190F0815B
:100F4000E02D642F19949A01462F50E060E070E084
:100F50000C9496078230C1F040F0843081F028F183
:100F6000853081F4109273000895882309F181304F
:100F700051F480916F008D7F80936F0008951092DF
:100F80007200089508950895809170008D7F809378
:100F9000700081E08093B0008091B100887F846010
:100FA0008093B1001092B3000895109271000895DB
:100FB00010926E000895CF93C82F80910A028C176B
:100FC00041F08FEF0E94AA0760E08C2FCF910C9424
:100FD000A20BECE9F1E084919FEF90930A020E944A
:100FE000AA0760E08C2FCF910C94A20B1F920F9256
:100FF0000FB60F9211240BB60F922F933F934F937E
:101000005F936F937F938F939F93AF93BF93EF9370
:10101000FF938091D3049091D404A091D504B09112
:10102000D604892B8A2B8B2BE1F19091D004E0918F
:10103000D104F091D2048081892780838091D304E8
:101040009091D404A091D504B091D6041816190635
:101050001A061B069CF48091D3049091D404A091AD
:10106000D504B091D6040197A109B1098093D304A6
:101070009093D404A093D504B093D604FF91EF913C
:10108000BF91AF919F918F917F916F915F914F91A0
:101090003F912F910F900BBE0F900FBE0F901F909E
:1010A000189580910A020E94DB07E8CF883030F55E
:1010B000E82FF0E0EE0FFF1FE952FB4F71836083D2
:1010C00090E0FC013197E730F105C8F080916A00AB
:1010D0008C7F842B80936A00EC9A089580916A003B
:1010E0000024569547950794569547950794542F95
:1010F000402D8F73842B80936A00EF9A0895EE58E9
:10110000FF4F0C94630C809169000024569547951D
:101110000794569547950794542F402D8F73842B31
:1011200080936900EB9A08958091690042955295E9
:10113000507F5427407F54278F7C842B80936900F5
:10114000EA9A089580916900440F551F440F551F76
:10115000837F842B80936900E99A089580916900C8
:101160008C7F842B80936900E89A089580916A00AF
:10117000440F551F440F551F837F842B80936A00B3
:10118000ED9A089580916A0042955295507F5427B8
:10119000407F54278F7C842B80936A00EE9A0895B9
:1011A0001F920F920FB60F9211240BB60F922F932E
:1011B0003F934F935F936F937F938F939F93AF93DF
:1011C000BF93EF93FF938091DB049091DC04892B14
:1011D00029F0E091DB04F091DC041995FF91EF9187
:1011E000BF91AF919F918F917F916F915F914F913F
:1011F0003F912F910F900BBE0F900FBE0F901F903D
:1012000018951F920F920FB60F9211240BB60F92E2
:101210002F933F934F935F936F937F938F939F93FE
:10122000AF93BF93EF93FF938091DD049091DE0421
:10123000892B29F0E091DD04F091DE041995FF91EE
:10124000EF91BF91AF919F918F917F916F915F913E
:101250004F913F912F910F900BBE0F900FBE0F90AB
:101260001F9018951F920F920FB60F9211240BB674
:101270000F922F933F934F935F936F937F938F932F
:101280009F93AF93BF93EF93FF938091DF0490916F
:10129000E004892B29F0E091DF04F091E004199536
:1012A000FF91EF91BF91AF919F918F917F916F913E
:1012B0005F914F913F912F910F900BBE0F900FBEFA
:1012C0000F901F9018951F920F920FB60F92112436
:1012D0000BB60F922F933F934F935F936F937F9330
:1012E0008F939F93AF93BF93EF93FF938091E1040C
:1012F0009091E204892B29F0E091E104F091E2045D
:101300001995FF91EF91BF91AF919F918F917F912F
:101310006F915F914F913F912F910F900BBE0F9066
:101320000FBE0F901F9018951F920F920FB60F923D
:1013300011240BB60F922F933F934F935F936F93AC
:101340007F938F939F93AF93BF93EF93FF9380917E
:10135000D7049091D804892B29F0E091D704F0911B
:10136000D8041995FF91EF91BF91AF919F918F9103
:101370007F916F915F914F913F912F910F900BBE95
:101380000F900FBE0F901F9018951F920F920FB6DF
:101390000F9211240BB60F922F933F934F935F93AD
:1013A0006F937F938F939F93AF93BF93EF93FF932D
:1013B0008091D9049091DA04892B29F0E091D90425
:1013C000F091DA041995FF91EF91BF91AF919F9140
:1013D0008F917F916F915F914F913F912F910F90DE
:1013E0000BBE0F900FBE0F901F9018951F920F927B
:1013F0000FB60F9211240BB60F922F933F934F937A
:101400005F936F937F938F939F93AF93BF93EF936C
:10141000FF938091E3049091E404892B29F0E091FB
:10142000E304F091E4041995FF91EF91BF91AF911E
:101430009F918F917F916F915F914F913F912F91EC
:101440000F900BBE0F900FBE0F901F9018951F921C
:101450000F920FB60F9211240BB60F922F933F935A
:101460004F935F936F937F938F939F93AF93BF93AC
:10147000EF93FF938091E5049091E604892B29F086
:10148000E091E504F091E6041995FF91EF91BF9189
:10149000AF919F918F917F916F915F914F913F910C
:1014A0002F910F900BBE0F900FBE0F901F901895AD
:1014B0001F920F920FB60F9211242F933F938F9389
:1014C0009F93AF93BF938091E8049091E904A0911A
:1014D000EA04B091EB043091E70423E0230F2D37A9
:1014E00068F126E8230F0296A11DB11D2093E704A1
:1014F0008093E8049093E904A093EA04B093EB048A
:101500008091EC049091ED04A091EE04B091EF0471
:101510000196A11DB11D8093EC049093ED04A0935E
:10152000EE04B093EF04BF91AF919F918F913F91E3
:101530002F910F900FBE0F901F9018950196A11D2F
:10154000B11DD4CF789484B5826084BD84B58160A8
:1015500084BD85B5826085BD85B5816085BDEEE6BB
:10156000F0E0808181608083E1E8F0E0108280819A
:1015700082608083808181608083E0E8F0E0808108
:1015800081608083E1EBF0E0808184608083E0EB28
:10159000F0E0808181608083E1E9F0E08081826019
:1015A0008083808181608083E0E9F0E080818160D8
:1015B0008083E1EAF0E080818260808380818160C5
:1015C0008083E0EAF0E0808181608083E1E2F1E005
:1015D000808182608083808181608083E0E2F1E0AD
:1015E000808181608083EAE7F0E08081846080838D
:1015F0008081826080838081816080838081806837
:1016000080831092C100089590E0FC013197E13190
:10161000F10548F4E758FF4F0C94630C80912001CA
:10162000877F80932001089584B58F7784BD0895C6
:1016300084B58F7D84BD0895809180008F778093DD
:1016400080000895809180008F7D809380000895B0
:101650008091B0008F778093B00008958091B000A2
:101660008F7D8093B0000895809190008F77809354
:1016700090000895809190008F7D80939000089550
:1016800080919000877F8093900008958091A000C2
:101690008F778093A00008958091A0008F7D809324
:1016A000A00008958091A000877F8093A0000895F6
:1016B000809120018F7780932001089580912001EF
:1016C0008F7D809320010895CF93DF9390E0FC01FC
:1016D000ED51FE4F2491FC01E75DFD4F849188237D
:1016E000B9F090E0880F991FFC01ED55FD4FA591D1
:1016F000B49187579D4FFC01C591D4919FB7662344
:1017000051F06230A1F0F8948C91822B8C939FBFA2
:10171000DF91CF910895F8948C91209582238C933A
:101720008881822388839FBFDF91CF910895F894A9
:101730008C91322F309583238C938881822B8883E0
:101740009FBFE6CF0F931F93CF93DF931F92CDB729
:10175000DEB7282F30E0F901E356FE4F8491F901FE
:10176000ED51FE4F0491F901E75DFD4F14911123F6
:1017700099F081111BC0E12FF0E0EE0FFF1FE7573A
:10178000FD4FA591B4918FB7F8949C9161110AC057
:10179000009590239C938FBF0F90DF91CF911F9165
:1017A0000F910895902B9C938FBFF6CF69830E9471
:1017B000040B6981E0CFCF93DF93282F30E0F9014C
:1017C000E356FE4F8491F901ED51FE4FD491F9019A
:1017D000E75DFD4FC491CC23B1F0811119C0EC2F0E
:1017E000F0E0EE0FFF1FE159FD4FA591B4912C9150
:1017F0002D2381E090E019F0DF91CF91089580E0F2
:10180000DF91CF91089580E090E0DF91CF9108952E
:101810000E94040BE4CFCF93DF9383E00E94DB0BA5
:10182000EC0182E00E94DB0B4AE050E0C817D907C8
:1018300069F062E070E088E892E00E948E076DE057
:1018400088E892E0DF91CF910C94BE0661E070E0F1
:10185000F2CF60E082E00E94640B60E083E00E94CF
:10186000640B41E050E06BE07CE080E00E945608B1
:1018700040E052EC61E070E088E892E00C947D0476
:101880000895A1E21A2EAA1BBB1BFD010DC0AA1FC1
:10189000BB1FEE1FFF1FA217B307E407F50720F0D9
:1018A000A21BB30BE40BF50B661F771F881F991F54
:1018B0001A9469F760957095809590959B01AC019D
:1018C000BD01CF010895EE0FFF1F0590F491E02DAB
:0E18D00019940790F691E02D1994F894FFCF2B
:1018DE000000F004200001000000FF00000000EAFC
:1018EE000191069401BD01A401DD01000000003448
:0218FE000600E2
:00000001FF
